:040000000DEF00F010
:040008007FEF03F093
:10001800FF00BFEF03F0000E176E000E186E000E03
:10002800196E000E1A6E3701E0B71DEF00F01FEFD2
:1000380000F0A3EF00F020EE01F01550D92616507D
:10004800DA226F0078FF03F06F0078FF04F06F008A
:1000580078FF05F06F0078FF06F0600057F0D9FFD1
:1000680060005BF0DAFFDF50076E170E086E000EB7
:10007800096E180E0A6E000E0B6E190E0C6E000E2D
:100088000D6E1A0E0E6E000E0F6EBAEC01F06000C7
:100098005FF0E3F7600063F0E4F7600067F0E1F712
:1000A80060006BF0E2F720EE05F01550D9261650E7
:1000B800DA22DF503701E56F20EE06F01550D92619
:1000C8001650DA22DF50E66F20EE07F01550D926D9
:1000D8001650DA22DF50E76F20EE08F01550D926C7
:1000E8001650DA22DF50E86F20EE09F01550D926B5
:1000F8001650DA22DF50E96F20EE0AF01550D926A3
:100108001650DA22DF50EA6F20EE0BF01550D92690
:100118001650DA22DF50EB6F20EE0CF01550D9267E
:100128001650DA22DF50EC6F20EE0DF01550D9266C
:100138001650DA22DF50ED6FE087B9EF01F0D0B743
:10014800A8EF00F0AAEF00F02EEF01F020EE01F08A
:100158001550D9261650DA226F0078FF03F06F0089
:1001680078FF04F06F0078FF05F06F0078FF06F065
:10017800600057F0D9FF60005BF0DAFFDF50076ED0
:10018800170E086E000E096E180E0A6E000E0B6E22
:10019800190E0C6E000E0D6E1A0E0E6E000E0F6EFE
:1001A800BAEC01F060005FF0D3F7600063F0D4F7B9
:1001B800600067F0D1F760006BF0D2F720EE05F031
:1001C8001550D9261650DA22DF503701D56F20EEA8
:1001D80006F01550D9261650DA22DF50D66F20EED9
:1001E80007F01550D9261650DA22DF50D76F20EEC7
:1001F80008F01550D9261650DA22DF50D86F20EEB5
:1002080009F01550D9261650DA22DF50D96F20EEA2
:100218000AF01550D9261650DA22DF50DA6F20EE90
:100228000BF01550D9261650DA22DF50DB6F20EE7E
:100238000CF01550D9261650DA22DF50DC6F20EE6C
:100248000DF01550D9261650DA22DF50DD6FD08711
:10025800A1EF00F0C0B733EF01F035EF01F0B9EFCF
:1002680001F020EE01F01550D9261650DA226F0061
:1002780078FF03F06F0078FF04F06F0078FF05F057
:100288006F0078FF06F0600057F0D9FF60005BF060
:10029800DAFFDF50076E170E086E000E096E180E93
:1002A8000A6E000E0B6E190E0C6E000E0D6E1A0EF5
:1002B8000E6E000E0F6EBAEC01F060005FF0C3F72F
:1002C800600063F0C4F7600067F0C1F760006BF08E
:1002D800C2F720EE05F01550D9261650DA22DF5065
:1002E8003701C56F20EE06F01550D9261650DA22D0
:1002F800DF50C66F20EE07F01550D9261650DA22C7
:10030800DF50C76F20EE08F01550D9261650DA22B4
:10031800DF50C86F20EE09F01550D9261650DA22A2
:10032800DF50C96F20EE0AF01550D9261650DA2290
:10033800DF50CA6F20EE0BF01550D9261650DA227E
:10034800DF50CB6F20EE0CF01550D9261650DA226C
:10035800DF50CC6F20EE0DF01550D9261650DA225A
:10036800DF50CD6FC087A1EF00F01200020E071812
:10037800D8A4C1EF01F0C3EF01F051EF02F0600023
:100388002BF0D9FF60002FF0DAFF60000FF0DFFFDD
:1003980003C010F004C011F005C012F006C013F03D
:1003A80011C010F012C011F013C012F0136A10C07F
:1003B80003F011C004F012C005F013C006F060008D
:1003C80023F0D9FF600027F0DAFF60000FF0DFFFAD
:1003D80003C010F004C011F005C012F006C013F0FD
:1003E80011C010F012C011F013C012F0136A10C03F
:1003F80003F011C004F012C005F013C006F003505A
:10040800030B146E03C010F004C011F005C012F005
:1004180006C013F0030ED890103611361236133674
:10042800E82E0FEF02F010C003F011C004F012C064
:1004380005F013C006F00350E00B1424146E14509A
:10044800080F146E1450EB0B60003BF0D9FF6000EE
:100458003FF0DAFFDF6E03C010F004C011F005C0F2
:1004680012F006C013F011C010F012C011F013C042
:1004780012F0136A10C003F011C004F012C005F0A6
:1004880013C006F0600033F0D9FF600037F0DAFFE0
:1004980060000FF0DFFF85EF02F0600023F0D9FF66
:1004A800600027F0DAFF000EDF6E60002BF0D9FF46
:1004B80060002FF0DAFF000EDF6E03C010F004C0FA
:1004C80011F005C012F006C013F0050ED8901036D2
:1004D800113612361336E82E6AEF02F010C003F018
:1004E80011C004F012C005F013C006F060003BF024
:1004F800D9FF60003FF0DAFF60000FF0DFFF2FEF59
:1005080002F01200800E8F6E8E50E00B800AD8A485
:1005180090EF02F092EF02F088EF02F0000E916E79
:10052800000E3701006F000EBA6F000EBB6F000E91
:10053800B86F000EB96F000EBE6F000EBF6F000ED1
:10054800BC6F000EBD6F000EA26F000EA36F000EF1
:10055800A06F000EA16F000EA66F000EA76F000E11
:10056800A46F000EA56F000EAA6F000EAB6F000EF1
:10057800A86F000EA96F000EAE6F000EAF6F000ED1
:10058800AC6F000EAD6F000EB26F000EB36F000EB1
:10059800B06F000EB16F000EB66F000EB76F000E91
:1005A800B46F000EB56F3F0E036FBF0E046F070EDA
:1005B800056FF60E036E070E046EEDEC03F03901BD
:1005C800A59D958D000E8F6E6F0038FE05F0E00E2C
:1005D8000516D8A4F2EF02F0F4EF02F0E8EF02F00B
:1005E8001200CCEC03F0000E1D6E700E1E6E040E91
:1005F8001F6E000E206E000E216E020E226E100E6F
:10060800E5EC03F0F6EC03F0F2EC03F06F00C0FB4E
:1006180023F06F00BCFB24F01D0E156E000E166E45
:100628000FEC00F0290E1C6E960E1B6E7F0EE82E46
:10063800FED71B2EFCD71C2EFAD700F003EF03F0D1
:100648000DEF00F0000E3E01DE6F000EDF6F000EB2
:10065800E06F000EE16F000EE46F000EE56F000E14
:10066800EA6F000EEC6F000EF16F000EF36F000ED4
:10067800F46F000EF56F000EF66F000EF76F000EA8
:10068800F96F000EFA6F000EFB6F000EFC6F000E84
:10069800FD6F000EFE6F000EFF6F840EF86F1200E4
:1006A800000EBA6E000EBB6E000EBC6EC268EF0E76
:1006B800C36EC4689D0E3A01606FE70E506F4069C3
:1006C800000E816F000E516F000E416F000E616FBA
:1006D800000E426F000E526F000E626F436953693D
:1006E8006369446954696469080E846F0B0EED6F81
:1006F800330E0C6F12006F00E8FF01F06F00ECFF83
:1007080002F0390195AD8BEF03F08DEF03F096EF12
:1007180003F0A5AD92EF03F094EF03F096EF03F02A
:10072800AFEC03F060000BF0FBFF600007F0FAFF8E
:100738001100000E3901C06F000EC16F000EC26FAC
:10074800000EC36F000EC46F000EC56F000EC66F9B
:10075800000EC76F120002D8BCEF03F00500FA6E56
:100768002B50FD6E2C50FE6EF850FF6EFA501200A2
:100778003901A59D12002C6A2B6A080ED56E000E51
:10078800D66E000ED76E000EF86E0001F5EF02F07F
:10079800F9EC03F09DEC03F054EC03F0D9EC03F012
:1007A80026EC03F086EC02F01200600E3901D96FD6
:1007B800000EDB6F000EDD6F080EDF6F000EDE6FC0
:1007C8001200036E60000FF0F1FE3E01F88FF88111
:1007D800120003C02BF004C02CF012003E01F051AF
:1007E800EF5112003E01F8511200D29A1200120085
:020000040020DA
:10000000FF0FFF0FFF0FFF0FFF0FFF0FFF0FFF0F80
:020000040030CA
:0A0000008CFFF7FF9FFFFFFFFFFFDB
:00000001FF
